{
  "_format": "hh-sol-artifact-1",
  "contractName": "PrivateSoulMinter",
  "sourceName": "contracts/PrivateSoulMinter.sol",
  "abi": [
    {
      "inputs": [],
      "stateMutability": "payable",
      "type": "constructor"
    },
    {
      "inputs": [],
      "name": "Soulbound",
      "type": "error"
    },
    {
      "anonymous": false,
      "inputs": [
        {
          "indexed": true,
          "internalType": "address",
          "name": "previousOwner",
          "type": "address"
        },
        {
          "indexed": true,
          "internalType": "address",
          "name": "newOwner",
          "type": "address"
        }
      ],
      "name": "OwnershipTransferred",
      "type": "event"
    },
    {
      "anonymous": false,
      "inputs": [
        {
          "indexed": true,
          "internalType": "address",
          "name": "from",
          "type": "address"
        },
        {
          "indexed": true,
          "internalType": "address",
          "name": "to",
          "type": "address"
        },
        {
          "indexed": true,
          "internalType": "uint256",
          "name": "id",
          "type": "uint256"
        }
      ],
      "name": "Transfer",
      "type": "event"
    },
    {
      "inputs": [
        {
          "internalType": "address",
          "name": "",
          "type": "address"
        },
        {
          "internalType": "uint256",
          "name": "",
          "type": "uint256"
        }
      ],
      "name": "approve",
      "outputs": [],
      "stateMutability": "nonpayable",
      "type": "function"
    },
    {
      "inputs": [
        {
          "internalType": "address",
          "name": "",
          "type": "address"
        }
      ],
      "name": "balanceOf",
      "outputs": [
        {
          "internalType": "uint256",
          "name": "",
          "type": "uint256"
        }
      ],
      "stateMutability": "view",
      "type": "function"
    },
    {
      "inputs": [
        {
          "internalType": "uint256",
          "name": "",
          "type": "uint256"
        }
      ],
      "name": "claimSignatureHash",
      "outputs": [
        {
          "internalType": "bytes32",
          "name": "",
          "type": "bytes32"
        }
      ],
      "stateMutability": "view",
      "type": "function"
    },
    {
      "inputs": [
        {
          "internalType": "uint256",
          "name": "",
          "type": "uint256"
        }
      ],
      "name": "getApproved",
      "outputs": [],
      "stateMutability": "pure",
      "type": "function"
    },
    {
      "inputs": [
        {
          "internalType": "address",
          "name": "",
          "type": "address"
        },
        {
          "internalType": "address",
          "name": "",
          "type": "address"
        }
      ],
      "name": "isApprovedForAll",
      "outputs": [],
      "stateMutability": "pure",
      "type": "function"
    },
    {
      "inputs": [
        {
          "internalType": "address",
          "name": "to",
          "type": "address"
        },
        {
          "internalType": "string",
          "name": "metaURI",
          "type": "string"
        },
        {
          "internalType": "bytes32",
          "name": "claimHashMetadata",
          "type": "bytes32"
        }
      ],
      "name": "mint",
      "outputs": [],
      "stateMutability": "nonpayable",
      "type": "function"
    },
    {
      "inputs": [],
      "name": "name",
      "outputs": [
        {
          "internalType": "string",
          "name": "",
          "type": "string"
        }
      ],
      "stateMutability": "view",
      "type": "function"
    },
    {
      "inputs": [],
      "name": "owner",
      "outputs": [
        {
          "internalType": "address",
          "name": "",
          "type": "address"
        }
      ],
      "stateMutability": "view",
      "type": "function"
    },
    {
      "inputs": [
        {
          "internalType": "uint256",
          "name": "",
          "type": "uint256"
        }
      ],
      "name": "ownerOf",
      "outputs": [
        {
          "internalType": "address",
          "name": "",
          "type": "address"
        }
      ],
      "stateMutability": "view",
      "type": "function"
    },
    {
      "inputs": [],
      "name": "renounceOwnership",
      "outputs": [],
      "stateMutability": "nonpayable",
      "type": "function"
    },
    {
      "inputs": [
        {
          "internalType": "address",
          "name": "",
          "type": "address"
        },
        {
          "internalType": "address",
          "name": "",
          "type": "address"
        },
        {
          "internalType": "uint256",
          "name": "",
          "type": "uint256"
        }
      ],
      "name": "safeTransferFrom",
      "outputs": [],
      "stateMutability": "nonpayable",
      "type": "function"
    },
    {
      "inputs": [
        {
          "internalType": "address",
          "name": "",
          "type": "address"
        },
        {
          "internalType": "address",
          "name": "",
          "type": "address"
        },
        {
          "internalType": "uint256",
          "name": "",
          "type": "uint256"
        },
        {
          "internalType": "bytes",
          "name": "",
          "type": "bytes"
        }
      ],
      "name": "safeTransferFrom",
      "outputs": [],
      "stateMutability": "nonpayable",
      "type": "function"
    },
    {
      "inputs": [
        {
          "internalType": "address",
          "name": "",
          "type": "address"
        },
        {
          "internalType": "bool",
          "name": "",
          "type": "bool"
        }
      ],
      "name": "setApprovalForAll",
      "outputs": [],
      "stateMutability": "nonpayable",
      "type": "function"
    },
    {
      "inputs": [
        {
          "internalType": "bytes4",
          "name": "interfaceId",
          "type": "bytes4"
        }
      ],
      "name": "supportsInterface",
      "outputs": [
        {
          "internalType": "bool",
          "name": "",
          "type": "bool"
        }
      ],
      "stateMutability": "pure",
      "type": "function"
    },
    {
      "inputs": [],
      "name": "symbol",
      "outputs": [
        {
          "internalType": "string",
          "name": "",
          "type": "string"
        }
      ],
      "stateMutability": "view",
      "type": "function"
    },
    {
      "inputs": [
        {
          "internalType": "uint256",
          "name": "",
          "type": "uint256"
        }
      ],
      "name": "tokenURI",
      "outputs": [
        {
          "internalType": "string",
          "name": "",
          "type": "string"
        }
      ],
      "stateMutability": "view",
      "type": "function"
    },
    {
      "inputs": [
        {
          "internalType": "address",
          "name": "",
          "type": "address"
        },
        {
          "internalType": "address",
          "name": "",
          "type": "address"
        },
        {
          "internalType": "uint256",
          "name": "",
          "type": "uint256"
        }
      ],
      "name": "transferFrom",
      "outputs": [],
      "stateMutability": "nonpayable",
      "type": "function"
    },
    {
      "inputs": [
        {
          "internalType": "address",
          "name": "newOwner",
          "type": "address"
        }
      ],
      "name": "transferOwnership",
      "outputs": [],
      "stateMutability": "nonpayable",
      "type": "function"
    }
  ],
  "bytecode": "0x6080604052600160055561002561001a61002a60201b60201c565b61003260201b60201c565b6100f6565b600033905090565b60008060009054906101000a900473ffffffffffffffffffffffffffffffffffffffff169050816000806101000a81548173ffffffffffffffffffffffffffffffffffffffff021916908373ffffffffffffffffffffffffffffffffffffffff1602179055508173ffffffffffffffffffffffffffffffffffffffff168173ffffffffffffffffffffffffffffffffffffffff167f8be0079c531659141344cd1fd0a4f28419497f9722a3daafe3b4186f6b6457e060405160405180910390a35050565b6114f7806101056000396000f3fe608060405234801561001057600080fd5b50600436106101165760003560e01c80638da5cb5b116100a2578063b88d4fde11610071578063b88d4fde146102cb578063c87b56dd146102e7578063d34047b614610317578063e985e9c514610333578063f2fde38b1461034f57610116565b80638da5cb5b1461024357806395d89b4114610261578063a22cb4651461027f578063ad0e30371461029b57610116565b806323b872dd116100e957806323b872dd146101a157806342842e0e146101bd5780636352211e146101d957806370a0823114610209578063715018a61461023957610116565b806301ffc9a71461011b57806306fdde031461014b578063081812fc14610169578063095ea7b314610185575b600080fd5b61013560048036038101906101309190610ca2565b61036b565b6040516101429190610cea565b60405180910390f35b6101536103fd565b6040516101609190610d9e565b60405180910390f35b610183600480360381019061017e9190610df6565b610436565b005b61019f600480360381019061019a9190610e81565b610468565b005b6101bb60048036038101906101b69190610ec1565b61049a565b005b6101d760048036038101906101d29190610ec1565b6104cc565b005b6101f360048036038101906101ee9190610df6565b6104fe565b6040516102009190610f23565b60405180910390f35b610223600480360381019061021e9190610f3e565b610531565b6040516102309190610f7a565b60405180910390f35b610241610549565b005b61024b6105d1565b6040516102589190610f23565b60405180910390f35b6102696105fa565b6040516102769190610d9e565b60405180910390f35b61029960048036038101906102949190610fc1565b610633565b005b6102b560048036038101906102b09190610df6565b610665565b6040516102c2919061101a565b60405180910390f35b6102e560048036038101906102e0919061109a565b61067d565b005b61030160048036038101906102fc9190610df6565b6106af565b60405161030e9190610d9e565b60405180910390f35b610331600480360381019061032c91906111a4565b61074f565b005b61034d60048036038101906103489190611218565b6109a7565b005b61036960048036038101906103649190610f3e565b6109d9565b005b60006301ffc9a760e01b827bffffffffffffffffffffffffffffffffffffffffffffffffffffffff191614806103c657506380ac58cd60e01b827bffffffffffffffffffffffffffffffffffffffffffffffffffffffff1916145b806103f65750635b5e139f60e01b827bffffffffffffffffffffffffffffffffffffffffffffffffffffffff1916145b9050919050565b6040518060400160405280600d81526020017f536f756c626f756e64204e46540000000000000000000000000000000000000081525081565b6040517fa4420a9500000000000000000000000000000000000000000000000000000000815260040160405180910390fd5b6040517fa4420a9500000000000000000000000000000000000000000000000000000000815260040160405180910390fd5b6040517fa4420a9500000000000000000000000000000000000000000000000000000000815260040160405180910390fd5b6040517fa4420a9500000000000000000000000000000000000000000000000000000000815260040160405180910390fd5b60036020528060005260406000206000915054906101000a900473ffffffffffffffffffffffffffffffffffffffff1681565b60046020528060005260406000206000915090505481565b610551610ad1565b73ffffffffffffffffffffffffffffffffffffffff1661056f6105d1565b73ffffffffffffffffffffffffffffffffffffffff16146105c5576040517f08c379a00000000000000000000000000000000000000000000000000000000081526004016105bc906112a4565b60405180910390fd5b6105cf6000610ad9565b565b60008060009054906101000a900473ffffffffffffffffffffffffffffffffffffffff16905090565b6040518060400160405280600481526020017f534f554c0000000000000000000000000000000000000000000000000000000081525081565b6040517fa4420a9500000000000000000000000000000000000000000000000000000000815260040160405180910390fd5b60026020528060005260406000206000915090505481565b6040517fa4420a9500000000000000000000000000000000000000000000000000000000815260040160405180910390fd5b600160205280600052604060002060009150905080546106ce906112f3565b80601f01602080910402602001604051908101604052809291908181526020018280546106fa906112f3565b80156107475780601f1061071c57610100808354040283529160200191610747565b820191906000526020600020905b81548152906001019060200180831161072a57829003601f168201915b505050505081565b610757610ad1565b73ffffffffffffffffffffffffffffffffffffffff166107756105d1565b73ffffffffffffffffffffffffffffffffffffffff16146107cb576040517f08c379a00000000000000000000000000000000000000000000000000000000081526004016107c2906112a4565b60405180910390fd5b6001600460008673ffffffffffffffffffffffffffffffffffffffff1673ffffffffffffffffffffffffffffffffffffffff168152602001908152602001600020541061084d576040517f08c379a000000000000000000000000000000000000000000000000000000000815260040161084490611397565b60405180910390fd5b600460008573ffffffffffffffffffffffffffffffffffffffff1673ffffffffffffffffffffffffffffffffffffffff168152602001908152602001600020600081548092919060010191905055508360036000600554815260200190815260200160002060006101000a81548173ffffffffffffffffffffffffffffffffffffffff021916908373ffffffffffffffffffffffffffffffffffffffff16021790555082826001600060055481526020019081526020016000209190610914929190610b9d565b50806002600060055481526020019081526020016000208190555060056000815480929190610942906113e6565b919050558473ffffffffffffffffffffffffffffffffffffffff16600073ffffffffffffffffffffffffffffffffffffffff167fddf252ad1be2c89b69c2b068fc378daa952ba7f163c4a11628f55a4df523b3ef60405160405180910390a450505050565b6040517fa4420a9500000000000000000000000000000000000000000000000000000000815260040160405180910390fd5b6109e1610ad1565b73ffffffffffffffffffffffffffffffffffffffff166109ff6105d1565b73ffffffffffffffffffffffffffffffffffffffff1614610a55576040517f08c379a0000000000000000000000000000000000000000000000000000000008152600401610a4c906112a4565b60405180910390fd5b600073ffffffffffffffffffffffffffffffffffffffff168173ffffffffffffffffffffffffffffffffffffffff161415610ac5576040517f08c379a0000000000000000000000000000000000000000000000000000000008152600401610abc906114a1565b60405180910390fd5b610ace81610ad9565b50565b600033905090565b60008060009054906101000a900473ffffffffffffffffffffffffffffffffffffffff169050816000806101000a81548173ffffffffffffffffffffffffffffffffffffffff021916908373ffffffffffffffffffffffffffffffffffffffff1602179055508173ffffffffffffffffffffffffffffffffffffffff168173ffffffffffffffffffffffffffffffffffffffff167f8be0079c531659141344cd1fd0a4f28419497f9722a3daafe3b4186f6b6457e060405160405180910390a35050565b828054610ba9906112f3565b90600052602060002090601f016020900481019282610bcb5760008555610c12565b82601f10610be457803560ff1916838001178555610c12565b82800160010185558215610c12579182015b82811115610c11578235825591602001919060010190610bf6565b5b509050610c1f9190610c23565b5090565b5b80821115610c3c576000816000905550600101610c24565b5090565b600080fd5b600080fd5b60007fffffffff0000000000000000000000000000000000000000000000000000000082169050919050565b610c7f81610c4a565b8114610c8a57600080fd5b50565b600081359050610c9c81610c76565b92915050565b600060208284031215610cb857610cb7610c40565b5b6000610cc684828501610c8d565b91505092915050565b60008115159050919050565b610ce481610ccf565b82525050565b6000602082019050610cff6000830184610cdb565b92915050565b600081519050919050565b600082825260208201905092915050565b60005b83811015610d3f578082015181840152602081019050610d24565b83811115610d4e576000848401525b50505050565b6000601f19601f8301169050919050565b6000610d7082610d05565b610d7a8185610d10565b9350610d8a818560208601610d21565b610d9381610d54565b840191505092915050565b60006020820190508181036000830152610db88184610d65565b905092915050565b6000819050919050565b610dd381610dc0565b8114610dde57600080fd5b50565b600081359050610df081610dca565b92915050565b600060208284031215610e0c57610e0b610c40565b5b6000610e1a84828501610de1565b91505092915050565b600073ffffffffffffffffffffffffffffffffffffffff82169050919050565b6000610e4e82610e23565b9050919050565b610e5e81610e43565b8114610e6957600080fd5b50565b600081359050610e7b81610e55565b92915050565b60008060408385031215610e9857610e97610c40565b5b6000610ea685828601610e6c565b9250506020610eb785828601610de1565b9150509250929050565b600080600060608486031215610eda57610ed9610c40565b5b6000610ee886828701610e6c565b9350506020610ef986828701610e6c565b9250506040610f0a86828701610de1565b9150509250925092565b610f1d81610e43565b82525050565b6000602082019050610f386000830184610f14565b92915050565b600060208284031215610f5457610f53610c40565b5b6000610f6284828501610e6c565b91505092915050565b610f7481610dc0565b82525050565b6000602082019050610f8f6000830184610f6b565b92915050565b610f9e81610ccf565b8114610fa957600080fd5b50565b600081359050610fbb81610f95565b92915050565b60008060408385031215610fd857610fd7610c40565b5b6000610fe685828601610e6c565b9250506020610ff785828601610fac565b9150509250929050565b6000819050919050565b61101481611001565b82525050565b600060208201905061102f600083018461100b565b92915050565b600080fd5b600080fd5b600080fd5b60008083601f84011261105a57611059611035565b5b8235905067ffffffffffffffff8111156110775761107661103a565b5b6020830191508360018202830111156110935761109261103f565b5b9250929050565b6000806000806000608086880312156110b6576110b5610c40565b5b60006110c488828901610e6c565b95505060206110d588828901610e6c565b94505060406110e688828901610de1565b935050606086013567ffffffffffffffff81111561110757611106610c45565b5b61111388828901611044565b92509250509295509295909350565b60008083601f84011261113857611137611035565b5b8235905067ffffffffffffffff8111156111555761115461103a565b5b6020830191508360018202830111156111715761117061103f565b5b9250929050565b61118181611001565b811461118c57600080fd5b50565b60008135905061119e81611178565b92915050565b600080600080606085870312156111be576111bd610c40565b5b60006111cc87828801610e6c565b945050602085013567ffffffffffffffff8111156111ed576111ec610c45565b5b6111f987828801611122565b9350935050604061120c8782880161118f565b91505092959194509250565b6000806040838503121561122f5761122e610c40565b5b600061123d85828601610e6c565b925050602061124e85828601610e6c565b9150509250929050565b7f4f776e61626c653a2063616c6c6572206973206e6f7420746865206f776e6572600082015250565b600061128e602083610d10565b915061129982611258565b602082019050919050565b600060208201905081810360008301526112bd81611281565b9050919050565b7f4e487b7100000000000000000000000000000000000000000000000000000000600052602260045260246000fd5b6000600282049050600182168061130b57607f821691505b6020821081141561131f5761131e6112c4565b5b50919050565b7f596f752063616e206f6e6c792068617665206f6e6520746f6b656e206173736f60008201527f63696174656420746f20796f757220736f756c00000000000000000000000000602082015250565b6000611381603383610d10565b915061138c82611325565b604082019050919050565b600060208201905081810360008301526113b081611374565b9050919050565b7f4e487b7100000000000000000000000000000000000000000000000000000000600052601160045260246000fd5b60006113f182610dc0565b91507fffffffffffffffffffffffffffffffffffffffffffffffffffffffffffffffff821415611424576114236113b7565b5b600182019050919050565b7f4f776e61626c653a206e6577206f776e657220697320746865207a65726f206160008201527f6464726573730000000000000000000000000000000000000000000000000000602082015250565b600061148b602683610d10565b91506114968261142f565b604082019050919050565b600060208201905081810360008301526114ba8161147e565b905091905056fea2646970667358221220247d9d36b4265a10a160a4c4efc9fdaa97b84410e42a2d3c1cf125bdf7a9026164736f6c634300080b0033",
  "linkReferences": {},
  "deployedLinkReferences": {}
}