{
	"data": {
		"bytecode": {
			"linkReferences": {},
			"object": "608060405234801561001057600080fd5b50611b82806100206000396000f3fe608060405234801561001057600080fd5b506004361061002b5760003560e01c80631e8e1e1314610030575b600080fd5b61004a60048036038101906100459190611962565b610060565b60405161005791906119e9565b60405180910390f35b60006117d4565b600080600184846000805b821561009c5782840591508482028603905084955080945082820284039050829350809250610072565b60018411156100aa57600080fd5b60008612156100b95788860195505b85965050505050505092915050565b60405181602084028301815160208301925060005b82841015610120578185527f30644e72e131a029b85045b68181585d2833e84879b9709143e1f593f00000018451830991506020850194506020840193506100dd565b61014a7f30644e72e131a029b85045b68181585d2833e84879b9709143e1f593f000000183610067565b91506020850394506020840393508592505b828411156101c6577f30644e72e131a029b85045b68181585d2833e84879b9709143e1f593f00000018551830990507f30644e72e131a029b85045b68181585d2833e84879b9709143e1f593f000000184518309915080845260208503945060208403935061015c565b81845250505050505050565b7f30644e72e131a029b85045b68181585d2833e84879b9709143e1f593f00000018110610203576000805260206000f35b50565b61032081511461021a576000805260206000f35b6102286102608201516101d2565b6102366102808201516101d2565b6102446102a08201516101d2565b6102526102c08201516101d2565b6102606102e08201516101d2565b61026e6103008201516101d2565b61027c6103208201516101d2565b50565b60008060208501516102c085015260208301516102e08501526020800183015161030085015260406020018301516103208501526060602001830151610340850152608060200183015161036085015260a06020018301516103808501527f30644e72e131a029b85045b68181585d2833e84879b9709143e1f593f000000160e06102c08601200690508060208501527f30644e72e131a029b85045b68181585d2833e84879b9709143e1f593f00000016020808601200660408501527f30644e72e131a029b85045b68181585d2833e84879b9709143e1f593f0000001604060e08501200660008501527f30644e72e131a029b85045b68181585d2833e84879b9709143e1f593f000000160c06101208501200691508160608501527f30644e72e131a029b85045b68181585d2833e84879b9709143e1f593f000000182820960a08501527f30644e72e131a029b85045b68181585d2833e84879b9709143e1f593f000000182830991507f30644e72e131a029b85045b68181585d2833e84879b9709143e1f593f000000182830991507f30644e72e131a029b85045b68181585d2833e84879b9709143e1f593f000000182830991508160808501527f30644e72e131a029b85045b68181585d2833e84879b9709143e1f593f000000180600184030106915081610260850152816102808501527f30644e72e131a029b85045b68181585d2833e84879b9709143e1f593f000000160e0610260850120068060c08601527f30644e72e131a029b85045b68181585d2833e84879b9709143e1f593f000000181820992508260e08601527f30644e72e131a029b85045b68181585d2833e84879b9709143e1f593f00000018184099250826101008601527f30644e72e131a029b85045b68181585d2833e84879b9709143e1f593f00000018184099250826101208601527f30644e72e131a029b85045b68181585d2833e84879b9709143e1f593f00000018184099250826101408601527f30644e72e131a029b85045b68181585d2833e84879b9709143e1f593f00000018184099250826101608601527f30644e72e131a029b85045b68181585d2833e84879b9709143e1f593f000000160806101e086012006610180860152505050505050565b60017f30644e72e131a029b85045b68181585d2833e84879b9709143e1f593f0000001807f30644e72e131a029b85045b68181585d2833e84879b9709143e1f593f00000018360608601510301066008096102a0830152610623600261028084016100c8565b610260820151600191507f30644e72e131a029b85045b68181585d2833e84879b9709143e1f593f0000001816102a0850151096102a0840152505050565b60007f30644e72e131a029b85045b68181585d2833e84879b9709143e1f593f0000001807f30644e72e131a029b85045b68181585d2833e84879b9709143e1f593f000000160208601516102a086015109830301069050806101a0830152505050565b60008060007f30644e72e131a029b85045b68181585d2833e84879b9709143e1f593f00000016101a08601516103208601510892507f30644e72e131a029b85045b68181585d2833e84879b9709143e1f593f000000160208601516102c08601510991507f30644e72e131a029b85045b68181585d2833e84879b9709143e1f593f0000001610260850151830891507f30644e72e131a029b85045b68181585d2833e84879b9709143e1f593f00000016040860151830891507f30644e72e131a029b85045b68181585d2833e84879b9709143e1f593f000000160208601516102e08601510990507f30644e72e131a029b85045b68181585d2833e84879b9709143e1f593f0000001610280850151820890507f30644e72e131a029b85045b68181585d2833e84879b9709143e1f593f00000016040860151820890507f30644e72e131a029b85045b68181585d2833e84879b9709143e1f593f000000181830991507f30644e72e131a029b85045b68181585d2833e84879b9709143e1f593f000000160408601516102a08601510890507f30644e72e131a029b85045b68181585d2833e84879b9709143e1f593f000000181830991507f30644e72e131a029b85045b68181585d2833e84879b9709143e1f593f0000001610300850151830991507f30644e72e131a029b85045b68181585d2833e84879b9709143e1f593f00000016000860151830991507f30644e72e131a029b85045b68181585d2833e84879b9709143e1f593f000000160008601516102a08701510990507f30644e72e131a029b85045b68181585d2833e84879b9709143e1f593f00000016000860151820990507f30644e72e131a029b85045b68181585d2833e84879b9709143e1f593f000000181830891507f30644e72e131a029b85045b68181585d2833e84879b9709143e1f593f0000001827f30644e72e131a029b85045b68181585d2833e84879b9709143e1f593f00000018501030692507f30644e72e131a029b85045b68181585d2833e84879b9709143e1f593f000000161028086015184099250826101c08601525050505050565b81518152602082015160208201525050565b6040518151815260208201516020820152825160408201526020830151606082015260408260808360066107d05a03fa80610a23576000805260206000f35b50505050565b6000604051835181526020840151602082015284604082015260408160608360076107d05a03fa915081610a61576000805260206000f35b825160408201526020830151606082015260408360808360066107d05a03fa915081610a91576000805260206000f35b5050505050565b600060405183815284602082015285604082015260408160608360076107d05a03fa915081610acb576000805260206000f35b825160408201526020830151606082015260408360808360066107d05a03fa915081610afb576000805260206000f35b505050505050565b600060405183815284602082015285604082015260408360608360076107d05a03fa915081610b36576000805260206000f35b505050505050565b6101e08201610b516101e08301826109d2565b610b65610180840151610220840183610a29565b505050565b60008061022084017f30644e72e131a029b85045b68181585d2833e84879b9709143e1f593f000000160c0860151610260860151099250610bed837f15d573fc890afebd6308281bf667988a2a7df914b371bc46645aeff185f42ab37f1f9be742471045cc436a97a2c8664790c8a99112bfd7c5cdbdb00c574342d28684610b03565b7f30644e72e131a029b85045b68181585d2833e84879b9709143e1f593f000000161028085015184099250610c64837f2655eb98e5bbd2d8f1cdef1730dd3ef40f2375004a0a298b21b9807aa244f0347f16c267dd4cf30f26f0564eb51c466dc1a5c907efd67ec76692d35fb1cdda0ce884610a98565b7f30644e72e131a029b85045b68181585d2833e84879b9709143e1f593f000000160c0860151610280860151099250610ca08360008084610a98565b7f30644e72e131a029b85045b68181585d2833e84879b9709143e1f593f000000160c08601516102a0860151099250610d1b837f0a0e62d9fb75cd50c682569f50a41969885df5911e67a1021a670b9c36380d137f16c267dd4cf30f26f0564eb51c466dc1a5c907efd67ec76692d35fb1cdda0ce884610a98565b60c08501519250610d2f8360008084610a98565b7f30644e72e131a029b85045b68181585d2833e84879b9709143e1f593f000000160a08601516102608601510892507f30644e72e131a029b85045b68181585d2833e84879b9709143e1f593f00000016040860151840892507f30644e72e131a029b85045b68181585d2833e84879b9709143e1f593f000000160a086015160020991507f30644e72e131a029b85045b68181585d2833e84879b9709143e1f593f0000001610280850151830891507f30644e72e131a029b85045b68181585d2833e84879b9709143e1f593f00000016040860151830891507f30644e72e131a029b85045b68181585d2833e84879b9709143e1f593f000000182840992507f30644e72e131a029b85045b68181585d2833e84879b9709143e1f593f000000160a086015160030991507f30644e72e131a029b85045b68181585d2833e84879b9709143e1f593f00000016102a0850151830891507f30644e72e131a029b85045b68181585d2833e84879b9709143e1f593f00000016040860151830891507f30644e72e131a029b85045b68181585d2833e84879b9709143e1f593f000000182840992507f30644e72e131a029b85045b68181585d2833e84879b9709143e1f593f00000016000860151840992507f30644e72e131a029b85045b68181585d2833e84879b9709143e1f593f000000160c0860151840992507f30644e72e131a029b85045b68181585d2833e84879b9709143e1f593f000000160008601516102a08701510991507f30644e72e131a029b85045b68181585d2833e84879b9709143e1f593f00000016000860151830991507f30644e72e131a029b85045b68181585d2833e84879b9709143e1f593f000000160c0860151830991507f30644e72e131a029b85045b68181585d2833e84879b9709143e1f593f000000182840892507f30644e72e131a029b85045b68181585d2833e84879b9709143e1f593f00000016101808601518408925061100a8360e0860183610a29565b7f30644e72e131a029b85045b68181585d2833e84879b9709143e1f593f00000016102c085015160208701510992507f30644e72e131a029b85045b68181585d2833e84879b9709143e1f593f0000001610260850151840892507f30644e72e131a029b85045b68181585d2833e84879b9709143e1f593f00000016040860151840892507f30644e72e131a029b85045b68181585d2833e84879b9709143e1f593f00000016102e085015160208701510991507f30644e72e131a029b85045b68181585d2833e84879b9709143e1f593f0000001610280850151830891507f30644e72e131a029b85045b68181585d2833e84879b9709143e1f593f00000016040860151830891507f30644e72e131a029b85045b68181585d2833e84879b9709143e1f593f000000182840992507f30644e72e131a029b85045b68181585d2833e84879b9709143e1f593f00000016000860151840992507f30644e72e131a029b85045b68181585d2833e84879b9709143e1f593f000000160c0860151840992507f30644e72e131a029b85045b68181585d2833e84879b9709143e1f593f00000016020860151840992507f30644e72e131a029b85045b68181585d2833e84879b9709143e1f593f0000001610300850151840992507f30644e72e131a029b85045b68181585d2833e84879b9709143e1f593f0000001837f30644e72e131a029b85045b68181585d2833e84879b9709143e1f593f000000103069250611274837f2ce6b0834b7bba47a0972f70f613d40b2f66ec401161f42bc0cc2ab8020482277f0bb071cfe5e5f1e18bbcd462d29b5f157c648b683841caf9033d45096d95c9e984610a98565b6112826101208501826109e4565b6080850151925061129883610160860183610a29565b7f30644e72e131a029b85045b68181585d2833e84879b9709143e1f593f000000183840992506112cd836101a0860183610a29565b6112df60e08601516020860183610a29565b6112f26101008601516060860183610a29565b61130561012086015160a0860183610a29565b6113566101408601517f09bebc383182d60239a1676131559f775274c9f3a60a40c1decb91bd1652edd87f05f52e577242bbd714129198820be347dd61940ebd3a29eacd6cd2f91a6c8c1484610a98565b6113a66101608601517f0953a04a4a70e490d204d95535ad4cb26a3b624a9ba2374d22a6e1d1876fa16c7e6304c95a8100438a1c93d627082acbb136b4e9769ab34887f667f1ae7b6a9984610a98565b6101c085015192507f30644e72e131a029b85045b68181585d2833e84879b9709143e1f593f00000018060c087015161032087015109840892507f30644e72e131a029b85045b68181585d2833e84879b9709143e1f593f00000018060e087015161026087015109840892507f30644e72e131a029b85045b68181585d2833e84879b9709143e1f593f00000018061010087015161028087015109840892507f30644e72e131a029b85045b68181585d2833e84879b9709143e1f593f0000001806101208701516102a087015109840892507f30644e72e131a029b85045b68181585d2833e84879b9709143e1f593f0000001806101408701516102c087015109840892507f30644e72e131a029b85045b68181585d2833e84879b9709143e1f593f0000001806101608701516102e087015109840892507f30644e72e131a029b85045b68181585d2833e84879b9709143e1f593f00000018061018087015161030087015109840892507f30644e72e131a029b85045b68181585d2833e84879b9709143e1f593f0000001837f30644e72e131a029b85045b68181585d2833e84879b9709143e1f593f000000103069250611566836002600184610a98565b6060850151925061157c836101e0860183610a29565b7f30644e72e131a029b85045b68181585d2833e84879b9709143e1f593f000000160608601516101808701510992507f30644e72e131a029b85045b68181585d2833e84879b9709143e1f593f00000017f2b337de1c8c14f22ec9b9e2f96afef3652627366f8170a0a948dad4ac1bd5e808409925061160083610220860183610a29565b5050505050565b60006040516101e0830151815260206101e08401015160208201527f26186a2d65ee4d2f9c9a5b91f86597d35f192cd120caf7e935d8443d1938e23d60408201527f30441fd1b5d3370482c42152a8899027716989a6996c2535bc9f7fee8aaef79e60608201527f1970ea81dd6992adfbc571effb03503adbbb6a857f578403c6c40e22d65b3c0260808201527f054793348f12c0cf5622c340573cb277586319de359ab9389778f689786b1e4860a082015261022083015160c08201526020610220840101517f30644e72e131a029b85045b68181585d97816a916871ca8d3c208c16d87cfd47817f30644e72e131a029b85045b68181585d97816a916871ca8d3c208c16d87cfd47030690508060e08301527f198e9393920d483a7260bfb731fb5d25f1aa493335a9e71297e485b7aef312c26101008301527f1800deef121f1e76426a00665e5c4479674322d4f75edadd46debd5cd992f6ed6101208301527f090689d0585ff075ec9e99ad690c3395bc4b313370b38ef355acdadcd122975b6101408301527f12c85ea5db8c6deb4aab71808dcb408fe3d1e7690c43d37b4ce6cc0166fa7daa6101608301526020826101808460086107d05a03fa825181169350505050919050565b6040516102c081016040526117e884610206565b6117f383828661027f565b6117fc816105bd565b6118068382610661565b61181081856106c4565b61181a8185610b3e565b6118248185610b6a565b61182d81611607565b6102c082036040528060005260206000f35b600061185261184d84611a29565b611a04565b9050808382526020820190508285602086028201111561187557611874611b10565b5b60005b858110156118a5578161188b888261194d565b845260208401935060208301925050600181019050611878565b5050509392505050565b60006118c26118bd84611a55565b611a04565b9050828152602081018484840111156118de576118dd611b15565b5b6118e9848285611a9c565b509392505050565b600082601f83011261190657611905611b0b565b5b813561191684826020860161183f565b91505092915050565b600082601f83011261193457611933611b0b565b5b81356119448482602086016118af565b91505092915050565b60008135905061195c81611b35565b92915050565b6000806040838503121561197957611978611b1f565b5b600083013567ffffffffffffffff81111561199757611996611b1a565b5b6119a38582860161191f565b925050602083013567ffffffffffffffff8111156119c4576119c3611b1a565b5b6119d0858286016118f1565b9150509250929050565b6119e381611a86565b82525050565b60006020820190506119fe60008301846119da565b92915050565b6000611a0e611a1f565b9050611a1a8282611aab565b919050565b6000604051905090565b600067ffffffffffffffff821115611a4457611a43611adc565b5b602082029050602081019050919050565b600067ffffffffffffffff821115611a7057611a6f611adc565b5b611a7982611b24565b9050602081019050919050565b60008115159050919050565b6000819050919050565b82818337600083830152505050565b611ab482611b24565b810181811067ffffffffffffffff82111715611ad357611ad2611adc565b5b80604052505050565b7f4e487b7100000000000000000000000000000000000000000000000000000000600052604160045260246000fd5b600080fd5b600080fd5b600080fd5b600080fd5b600080fd5b6000601f19601f8301169050919050565b611b3e81611a92565b8114611b4957600080fd5b5056fea2646970667358221220caccfc8d7a798481dbf0fc5088c26eceaa3763d648e5ca58aa7abce3680fa20564736f6c63430008070033",
			"opcodes": "PUSH1 0x80 PUSH1 0x40 MSTORE CALLVALUE DUP1 ISZERO PUSH2 0x10 JUMPI PUSH1 0x0 DUP1 REVERT JUMPDEST POP PUSH2 0x1B82 DUP1 PUSH2 0x20 PUSH1 0x0 CODECOPY PUSH1 0x0 RETURN INVALID PUSH1 0x80 PUSH1 0x40 MSTORE CALLVALUE DUP1 ISZERO PUSH2 0x10 JUMPI PUSH1 0x0 DUP1 REVERT JUMPDEST POP PUSH1 0x4 CALLDATASIZE LT PUSH2 0x2B JUMPI PUSH1 0x0 CALLDATALOAD PUSH1 0xE0 SHR DUP1 PUSH4 0x1E8E1E13 EQ PUSH2 0x30 JUMPI JUMPDEST PUSH1 0x0 DUP1 REVERT JUMPDEST PUSH2 0x4A PUSH1 0x4 DUP1 CALLDATASIZE SUB DUP2 ADD SWAP1 PUSH2 0x45 SWAP2 SWAP1 PUSH2 0x1962 JUMP JUMPDEST PUSH2 0x60 JUMP JUMPDEST PUSH1 0x40 MLOAD PUSH2 0x57 SWAP2 SWAP1 PUSH2 0x19E9 JUMP JUMPDEST PUSH1 0x40 MLOAD DUP1 SWAP2 SUB SWAP1 RETURN JUMPDEST PUSH1 0x0 PUSH2 0x17D4 JUMP JUMPDEST PUSH1 0x0 DUP1 PUSH1 0x1 DUP5 DUP5 PUSH1 0x0 DUP1 JUMPDEST DUP3 ISZERO PUSH2 0x9C JUMPI DUP3 DUP5 SDIV SWAP2 POP DUP5 DUP3 MUL DUP7 SUB SWAP1 POP DUP5 SWAP6 POP DUP1 SWAP5 POP DUP3 DUP3 MUL DUP5 SUB SWAP1 POP DUP3 SWAP4 POP DUP1 SWAP3 POP PUSH2 0x72 JUMP JUMPDEST PUSH1 0x1 DUP5 GT ISZERO PUSH2 0xAA JUMPI PUSH1 0x0 DUP1 REVERT JUMPDEST PUSH1 0x0 DUP7 SLT ISZERO PUSH2 0xB9 JUMPI DUP9 DUP7 ADD SWAP6 POP JUMPDEST DUP6 SWAP7 POP POP POP POP POP POP POP SWAP3 SWAP2 POP POP JUMP JUMPDEST PUSH1 0x40 MLOAD DUP2 PUSH1 0x20 DUP5 MUL DUP4 ADD DUP2 MLOAD PUSH1 0x20 DUP4 ADD SWAP3 POP PUSH1 0x0 JUMPDEST DUP3 DUP5 LT ISZERO PUSH2 0x120 JUMPI DUP2 DUP6 MSTORE PUSH32 0x30644E72E131A029B85045B68181585D2833E84879B9709143E1F593F0000001 DUP5 MLOAD DUP4 MULMOD SWAP2 POP PUSH1 0x20 DUP6 ADD SWAP5 POP PUSH1 0x20 DUP5 ADD SWAP4 POP PUSH2 0xDD JUMP JUMPDEST PUSH2 0x14A PUSH32 0x30644E72E131A029B85045B68181585D2833E84879B9709143E1F593F0000001 DUP4 PUSH2 0x67 JUMP JUMPDEST SWAP2 POP PUSH1 0x20 DUP6 SUB SWAP5 POP PUSH1 0x20 DUP5 SUB SWAP4 POP DUP6 SWAP3 POP JUMPDEST DUP3 DUP5 GT ISZERO PUSH2 0x1C6 JUMPI PUSH32 0x30644E72E131A029B85045B68181585D2833E84879B9709143E1F593F0000001 DUP6 MLOAD DUP4 MULMOD SWAP1 POP PUSH32 0x30644E72E131A029B85045B68181585D2833E84879B9709143E1F593F0000001 DUP5 MLOAD DUP4 MULMOD SWAP2 POP DUP1 DUP5 MSTORE PUSH1 0x20 DUP6 SUB SWAP5 POP PUSH1 0x20 DUP5 SUB SWAP4 POP PUSH2 0x15C JUMP JUMPDEST DUP2 DUP5 MSTORE POP POP POP POP POP POP POP JUMP JUMPDEST PUSH32 0x30644E72E131A029B85045B68181585D2833E84879B9709143E1F593F0000001 DUP2 LT PUSH2 0x203 JUMPI PUSH1 0x0 DUP1 MSTORE PUSH1 0x20 PUSH1 0x0 RETURN JUMPDEST POP JUMP JUMPDEST PUSH2 0x320 DUP2 MLOAD EQ PUSH2 0x21A JUMPI PUSH1 0x0 DUP1 MSTORE PUSH1 0x20 PUSH1 0x0 RETURN JUMPDEST PUSH2 0x228 PUSH2 0x260 DUP3 ADD MLOAD PUSH2 0x1D2 JUMP JUMPDEST PUSH2 0x236 PUSH2 0x280 DUP3 ADD MLOAD PUSH2 0x1D2 JUMP JUMPDEST PUSH2 0x244 PUSH2 0x2A0 DUP3 ADD MLOAD PUSH2 0x1D2 JUMP JUMPDEST PUSH2 0x252 PUSH2 0x2C0 DUP3 ADD MLOAD PUSH2 0x1D2 JUMP JUMPDEST PUSH2 0x260 PUSH2 0x2E0 DUP3 ADD MLOAD PUSH2 0x1D2 JUMP JUMPDEST PUSH2 0x26E PUSH2 0x300 DUP3 ADD MLOAD PUSH2 0x1D2 JUMP JUMPDEST PUSH2 0x27C PUSH2 0x320 DUP3 ADD MLOAD PUSH2 0x1D2 JUMP JUMPDEST POP JUMP JUMPDEST PUSH1 0x0 DUP1 PUSH1 0x20 DUP6 ADD MLOAD PUSH2 0x2C0 DUP6 ADD MSTORE PUSH1 0x20 DUP4 ADD MLOAD PUSH2 0x2E0 DUP6 ADD MSTORE PUSH1 0x20 DUP1 ADD DUP4 ADD MLOAD PUSH2 0x300 DUP6 ADD MSTORE PUSH1 0x40 PUSH1 0x20 ADD DUP4 ADD MLOAD PUSH2 0x320 DUP6 ADD MSTORE PUSH1 0x60 PUSH1 0x20 ADD DUP4 ADD MLOAD PUSH2 0x340 DUP6 ADD MSTORE PUSH1 0x80 PUSH1 0x20 ADD DUP4 ADD MLOAD PUSH2 0x360 DUP6 ADD MSTORE PUSH1 0xA0 PUSH1 0x20 ADD DUP4 ADD MLOAD PUSH2 0x380 DUP6 ADD MSTORE PUSH32 0x30644E72E131A029B85045B68181585D2833E84879B9709143E1F593F0000001 PUSH1 0xE0 PUSH2 0x2C0 DUP7 ADD KECCAK256 MOD SWAP1 POP DUP1 PUSH1 0x20 DUP6 ADD MSTORE PUSH32 0x30644E72E131A029B85045B68181585D2833E84879B9709143E1F593F0000001 PUSH1 0x20 DUP1 DUP7 ADD KECCAK256 MOD PUSH1 0x40 DUP6 ADD MSTORE PUSH32 0x30644E72E131A029B85045B68181585D2833E84879B9709143E1F593F0000001 PUSH1 0x40 PUSH1 0xE0 DUP6 ADD KECCAK256 MOD PUSH1 0x0 DUP6 ADD MSTORE PUSH32 0x30644E72E131A029B85045B68181585D2833E84879B9709143E1F593F0000001 PUSH1 0xC0 PUSH2 0x120 DUP6 ADD KECCAK256 MOD SWAP2 POP DUP2 PUSH1 0x60 DUP6 ADD MSTORE PUSH32 0x30644E72E131A029B85045B68181585D2833E84879B9709143E1F593F0000001 DUP3 DUP3 MULMOD PUSH1 0xA0 DUP6 ADD MSTORE PUSH32 0x30644E72E131A029B85045B68181585D2833E84879B9709143E1F593F0000001 DUP3 DUP4 MULMOD SWAP2 POP PUSH32 0x30644E72E131A029B85045B68181585D2833E84879B9709143E1F593F0000001 DUP3 DUP4 MULMOD SWAP2 POP PUSH32 0x30644E72E131A029B85045B68181585D2833E84879B9709143E1F593F0000001 DUP3 DUP4 MULMOD SWAP2 POP DUP2 PUSH1 0x80 DUP6 ADD MSTORE PUSH32 0x30644E72E131A029B85045B68181585D2833E84879B9709143E1F593F0000001 DUP1 PUSH1 0x1 DUP5 SUB ADD MOD SWAP2 POP DUP2 PUSH2 0x260 DUP6 ADD MSTORE DUP2 PUSH2 0x280 DUP6 ADD MSTORE PUSH32 0x30644E72E131A029B85045B68181585D2833E84879B9709143E1F593F0000001 PUSH1 0xE0 PUSH2 0x260 DUP6 ADD KECCAK256 MOD DUP1 PUSH1 0xC0 DUP7 ADD MSTORE PUSH32 0x30644E72E131A029B85045B68181585D2833E84879B9709143E1F593F0000001 DUP2 DUP3 MULMOD SWAP3 POP DUP3 PUSH1 0xE0 DUP7 ADD MSTORE PUSH32 0x30644E72E131A029B85045B68181585D2833E84879B9709143E1F593F0000001 DUP2 DUP5 MULMOD SWAP3 POP DUP3 PUSH2 0x100 DUP7 ADD MSTORE PUSH32 0x30644E72E131A029B85045B68181585D2833E84879B9709143E1F593F0000001 DUP2 DUP5 MULMOD SWAP3 POP DUP3 PUSH2 0x120 DUP7 ADD MSTORE PUSH32 0x30644E72E131A029B85045B68181585D2833E84879B9709143E1F593F0000001 DUP2 DUP5 MULMOD SWAP3 POP DUP3 PUSH2 0x140 DUP7 ADD MSTORE PUSH32 0x30644E72E131A029B85045B68181585D2833E84879B9709143E1F593F0000001 DUP2 DUP5 MULMOD SWAP3 POP DUP3 PUSH2 0x160 DUP7 ADD MSTORE PUSH32 0x30644E72E131A029B85045B68181585D2833E84879B9709143E1F593F0000001 PUSH1 0x80 PUSH2 0x1E0 DUP7 ADD KECCAK256 MOD PUSH2 0x180 DUP7 ADD MSTORE POP POP POP POP POP POP JUMP JUMPDEST PUSH1 0x1 PUSH32 0x30644E72E131A029B85045B68181585D2833E84879B9709143E1F593F0000001 DUP1 PUSH32 0x30644E72E131A029B85045B68181585D2833E84879B9709143E1F593F0000001 DUP4 PUSH1 0x60 DUP7 ADD MLOAD SUB ADD MOD PUSH1 0x8 MULMOD PUSH2 0x2A0 DUP4 ADD MSTORE PUSH2 0x623 PUSH1 0x2 PUSH2 0x280 DUP5 ADD PUSH2 0xC8 JUMP JUMPDEST PUSH2 0x260 DUP3 ADD MLOAD PUSH1 0x1 SWAP2 POP PUSH32 0x30644E72E131A029B85045B68181585D2833E84879B9709143E1F593F0000001 DUP2 PUSH2 0x2A0 DUP6 ADD MLOAD MULMOD PUSH2 0x2A0 DUP5 ADD MSTORE POP POP POP JUMP JUMPDEST PUSH1 0x0 PUSH32 0x30644E72E131A029B85045B68181585D2833E84879B9709143E1F593F0000001 DUP1 PUSH32 0x30644E72E131A029B85045B68181585D2833E84879B9709143E1F593F0000001 PUSH1 0x20 DUP7 ADD MLOAD PUSH2 0x2A0 DUP7 ADD MLOAD MULMOD DUP4 SUB ADD MOD SWAP1 POP DUP1 PUSH2 0x1A0 DUP4 ADD MSTORE POP POP POP JUMP JUMPDEST PUSH1 0x0 DUP1 PUSH1 0x0 PUSH32 0x30644E72E131A029B85045B68181585D2833E84879B9709143E1F593F0000001 PUSH2 0x1A0 DUP7 ADD MLOAD PUSH2 0x320 DUP7 ADD MLOAD ADDMOD SWAP3 POP PUSH32 0x30644E72E131A029B85045B68181585D2833E84879B9709143E1F593F0000001 PUSH1 0x20 DUP7 ADD MLOAD PUSH2 0x2C0 DUP7 ADD MLOAD MULMOD SWAP2 POP PUSH32 0x30644E72E131A029B85045B68181585D2833E84879B9709143E1F593F0000001 PUSH2 0x260 DUP6 ADD MLOAD DUP4 ADDMOD SWAP2 POP PUSH32 0x30644E72E131A029B85045B68181585D2833E84879B9709143E1F593F0000001 PUSH1 0x40 DUP7 ADD MLOAD DUP4 ADDMOD SWAP2 POP PUSH32 0x30644E72E131A029B85045B68181585D2833E84879B9709143E1F593F0000001 PUSH1 0x20 DUP7 ADD MLOAD PUSH2 0x2E0 DUP7 ADD MLOAD MULMOD SWAP1 POP PUSH32 0x30644E72E131A029B85045B68181585D2833E84879B9709143E1F593F0000001 PUSH2 0x280 DUP6 ADD MLOAD DUP3 ADDMOD SWAP1 POP PUSH32 0x30644E72E131A029B85045B68181585D2833E84879B9709143E1F593F0000001 PUSH1 0x40 DUP7 ADD MLOAD DUP3 ADDMOD SWAP1 POP PUSH32 0x30644E72E131A029B85045B68181585D2833E84879B9709143E1F593F0000001 DUP2 DUP4 MULMOD SWAP2 POP PUSH32 0x30644E72E131A029B85045B68181585D2833E84879B9709143E1F593F0000001 PUSH1 0x40 DUP7 ADD MLOAD PUSH2 0x2A0 DUP7 ADD MLOAD ADDMOD SWAP1 POP PUSH32 0x30644E72E131A029B85045B68181585D2833E84879B9709143E1F593F0000001 DUP2 DUP4 MULMOD SWAP2 POP PUSH32 0x30644E72E131A029B85045B68181585D2833E84879B9709143E1F593F0000001 PUSH2 0x300 DUP6 ADD MLOAD DUP4 MULMOD SWAP2 POP PUSH32 0x30644E72E131A029B85045B68181585D2833E84879B9709143E1F593F0000001 PUSH1 0x0 DUP7 ADD MLOAD DUP4 MULMOD SWAP2 POP PUSH32 0x30644E72E131A029B85045B68181585D2833E84879B9709143E1F593F0000001 PUSH1 0x0 DUP7 ADD MLOAD PUSH2 0x2A0 DUP8 ADD MLOAD MULMOD SWAP1 POP PUSH32 0x30644E72E131A029B85045B68181585D2833E84879B9709143E1F593F0000001 PUSH1 0x0 DUP7 ADD MLOAD DUP3 MULMOD SWAP1 POP PUSH32 0x30644E72E131A029B85045B68181585D2833E84879B9709143E1F593F0000001 DUP2 DUP4 ADDMOD SWAP2 POP PUSH32 0x30644E72E131A029B85045B68181585D2833E84879B9709143E1F593F0000001 DUP3 PUSH32 0x30644E72E131A029B85045B68181585D2833E84879B9709143E1F593F0000001 DUP6 ADD SUB MOD SWAP3 POP PUSH32 0x30644E72E131A029B85045B68181585D2833E84879B9709143E1F593F0000001 PUSH2 0x280 DUP7 ADD MLOAD DUP5 MULMOD SWAP3 POP DUP3 PUSH2 0x1C0 DUP7 ADD MSTORE POP POP POP POP POP JUMP JUMPDEST DUP2 MLOAD DUP2 MSTORE PUSH1 0x20 DUP3 ADD MLOAD PUSH1 0x20 DUP3 ADD MSTORE POP POP JUMP JUMPDEST PUSH1 0x40 MLOAD DUP2 MLOAD DUP2 MSTORE PUSH1 0x20 DUP3 ADD MLOAD PUSH1 0x20 DUP3 ADD MSTORE DUP3 MLOAD PUSH1 0x40 DUP3 ADD MSTORE PUSH1 0x20 DUP4 ADD MLOAD PUSH1 0x60 DUP3 ADD MSTORE PUSH1 0x40 DUP3 PUSH1 0x80 DUP4 PUSH1 0x6 PUSH2 0x7D0 GAS SUB STATICCALL DUP1 PUSH2 0xA23 JUMPI PUSH1 0x0 DUP1 MSTORE PUSH1 0x20 PUSH1 0x0 RETURN JUMPDEST POP POP POP POP JUMP JUMPDEST PUSH1 0x0 PUSH1 0x40 MLOAD DUP4 MLOAD DUP2 MSTORE PUSH1 0x20 DUP5 ADD MLOAD PUSH1 0x20 DUP3 ADD MSTORE DUP5 PUSH1 0x40 DUP3 ADD MSTORE PUSH1 0x40 DUP2 PUSH1 0x60 DUP4 PUSH1 0x7 PUSH2 0x7D0 GAS SUB STATICCALL SWAP2 POP DUP2 PUSH2 0xA61 JUMPI PUSH1 0x0 DUP1 MSTORE PUSH1 0x20 PUSH1 0x0 RETURN JUMPDEST DUP3 MLOAD PUSH1 0x40 DUP3 ADD MSTORE PUSH1 0x20 DUP4 ADD MLOAD PUSH1 0x60 DUP3 ADD MSTORE PUSH1 0x40 DUP4 PUSH1 0x80 DUP4 PUSH1 0x6 PUSH2 0x7D0 GAS SUB STATICCALL SWAP2 POP DUP2 PUSH2 0xA91 JUMPI PUSH1 0x0 DUP1 MSTORE PUSH1 0x20 PUSH1 0x0 RETURN JUMPDEST POP POP POP POP POP JUMP JUMPDEST PUSH1 0x0 PUSH1 0x40 MLOAD DUP4 DUP2 MSTORE DUP5 PUSH1 0x20 DUP3 ADD MSTORE DUP6 PUSH1 0x40 DUP3 ADD MSTORE PUSH1 0x40 DUP2 PUSH1 0x60 DUP4 PUSH1 0x7 PUSH2 0x7D0 GAS SUB STATICCALL SWAP2 POP DUP2 PUSH2 0xACB JUMPI PUSH1 0x0 DUP1 MSTORE PUSH1 0x20 PUSH1 0x0 RETURN JUMPDEST DUP3 MLOAD PUSH1 0x40 DUP3 ADD MSTORE PUSH1 0x20 DUP4 ADD MLOAD PUSH1 0x60 DUP3 ADD MSTORE PUSH1 0x40 DUP4 PUSH1 0x80 DUP4 PUSH1 0x6 PUSH2 0x7D0 GAS SUB STATICCALL SWAP2 POP DUP2 PUSH2 0xAFB JUMPI PUSH1 0x0 DUP1 MSTORE PUSH1 0x20 PUSH1 0x0 RETURN JUMPDEST POP POP POP POP POP POP JUMP JUMPDEST PUSH1 0x0 PUSH1 0x40 MLOAD DUP4 DUP2 MSTORE DUP5 PUSH1 0x20 DUP3 ADD MSTORE DUP6 PUSH1 0x40 DUP3 ADD MSTORE PUSH1 0x40 DUP4 PUSH1 0x60 DUP4 PUSH1 0x7 PUSH2 0x7D0 GAS SUB STATICCALL SWAP2 POP DUP2 PUSH2 0xB36 JUMPI PUSH1 0x0 DUP1 MSTORE PUSH1 0x20 PUSH1 0x0 RETURN JUMPDEST POP POP POP POP POP POP JUMP JUMPDEST PUSH2 0x1E0 DUP3 ADD PUSH2 0xB51 PUSH2 0x1E0 DUP4 ADD DUP3 PUSH2 0x9D2 JUMP JUMPDEST PUSH2 0xB65 PUSH2 0x180 DUP5 ADD MLOAD PUSH2 0x220 DUP5 ADD DUP4 PUSH2 0xA29 JUMP JUMPDEST POP POP POP JUMP JUMPDEST PUSH1 0x0 DUP1 PUSH2 0x220 DUP5 ADD PUSH32 0x30644E72E131A029B85045B68181585D2833E84879B9709143E1F593F0000001 PUSH1 0xC0 DUP7 ADD MLOAD PUSH2 0x260 DUP7 ADD MLOAD MULMOD SWAP3 POP PUSH2 0xBED DUP4 PUSH32 0x15D573FC890AFEBD6308281BF667988A2A7DF914B371BC46645AEFF185F42AB3 PUSH32 0x1F9BE742471045CC436A97A2C8664790C8A99112BFD7C5CDBDB00C574342D286 DUP5 PUSH2 0xB03 JUMP JUMPDEST PUSH32 0x30644E72E131A029B85045B68181585D2833E84879B9709143E1F593F0000001 PUSH2 0x280 DUP6 ADD MLOAD DUP5 MULMOD SWAP3 POP PUSH2 0xC64 DUP4 PUSH32 0x2655EB98E5BBD2D8F1CDEF1730DD3EF40F2375004A0A298B21B9807AA244F034 PUSH32 0x16C267DD4CF30F26F0564EB51C466DC1A5C907EFD67EC76692D35FB1CDDA0CE8 DUP5 PUSH2 0xA98 JUMP JUMPDEST PUSH32 0x30644E72E131A029B85045B68181585D2833E84879B9709143E1F593F0000001 PUSH1 0xC0 DUP7 ADD MLOAD PUSH2 0x280 DUP7 ADD MLOAD MULMOD SWAP3 POP PUSH2 0xCA0 DUP4 PUSH1 0x0 DUP1 DUP5 PUSH2 0xA98 JUMP JUMPDEST PUSH32 0x30644E72E131A029B85045B68181585D2833E84879B9709143E1F593F0000001 PUSH1 0xC0 DUP7 ADD MLOAD PUSH2 0x2A0 DUP7 ADD MLOAD MULMOD SWAP3 POP PUSH2 0xD1B DUP4 PUSH32 0xA0E62D9FB75CD50C682569F50A41969885DF5911E67A1021A670B9C36380D13 PUSH32 0x16C267DD4CF30F26F0564EB51C466DC1A5C907EFD67EC76692D35FB1CDDA0CE8 DUP5 PUSH2 0xA98 JUMP JUMPDEST PUSH1 0xC0 DUP6 ADD MLOAD SWAP3 POP PUSH2 0xD2F DUP4 PUSH1 0x0 DUP1 DUP5 PUSH2 0xA98 JUMP JUMPDEST PUSH32 0x30644E72E131A029B85045B68181585D2833E84879B9709143E1F593F0000001 PUSH1 0xA0 DUP7 ADD MLOAD PUSH2 0x260 DUP7 ADD MLOAD ADDMOD SWAP3 POP PUSH32 0x30644E72E131A029B85045B68181585D2833E84879B9709143E1F593F0000001 PUSH1 0x40 DUP7 ADD MLOAD DUP5 ADDMOD SWAP3 POP PUSH32 0x30644E72E131A029B85045B68181585D2833E84879B9709143E1F593F0000001 PUSH1 0xA0 DUP7 ADD MLOAD PUSH1 0x2 MULMOD SWAP2 POP PUSH32 0x30644E72E131A029B85045B68181585D2833E84879B9709143E1F593F0000001 PUSH2 0x280 DUP6 ADD MLOAD DUP4 ADDMOD SWAP2 POP PUSH32 0x30644E72E131A029B85045B68181585D2833E84879B9709143E1F593F0000001 PUSH1 0x40 DUP7 ADD MLOAD DUP4 ADDMOD SWAP2 POP PUSH32 0x30644E72E131A029B85045B68181585D2833E84879B9709143E1F593F0000001 DUP3 DUP5 MULMOD SWAP3 POP PUSH32 0x30644E72E131A029B85045B68181585D2833E84879B9709143E1F593F0000001 PUSH1 0xA0 DUP7 ADD MLOAD PUSH1 0x3 MULMOD SWAP2 POP PUSH32 0x30644E72E131A029B85045B68181585D2833E84879B9709143E1F593F0000001 PUSH2 0x2A0 DUP6 ADD MLOAD DUP4 ADDMOD SWAP2 POP PUSH32 0x30644E72E131A029B85045B68181585D2833E84879B9709143E1F593F0000001 PUSH1 0x40 DUP7 ADD MLOAD DUP4 ADDMOD SWAP2 POP PUSH32 0x30644E72E131A029B85045B68181585D2833E84879B9709143E1F593F0000001 DUP3 DUP5 MULMOD SWAP3 POP PUSH32 0x30644E72E131A029B85045B68181585D2833E84879B9709143E1F593F0000001 PUSH1 0x0 DUP7 ADD MLOAD DUP5 MULMOD SWAP3 POP PUSH32 0x30644E72E131A029B85045B68181585D2833E84879B9709143E1F593F0000001 PUSH1 0xC0 DUP7 ADD MLOAD DUP5 MULMOD SWAP3 POP PUSH32 0x30644E72E131A029B85045B68181585D2833E84879B9709143E1F593F0000001 PUSH1 0x0 DUP7 ADD MLOAD PUSH2 0x2A0 DUP8 ADD MLOAD MULMOD SWAP2 POP PUSH32 0x30644E72E131A029B85045B68181585D2833E84879B9709143E1F593F0000001 PUSH1 0x0 DUP7 ADD MLOAD DUP4 MULMOD SWAP2 POP PUSH32 0x30644E72E131A029B85045B68181585D2833E84879B9709143E1F593F0000001 PUSH1 0xC0 DUP7 ADD MLOAD DUP4 MULMOD SWAP2 POP PUSH32 0x30644E72E131A029B85045B68181585D2833E84879B9709143E1F593F0000001 DUP3 DUP5 ADDMOD SWAP3 POP PUSH32 0x30644E72E131A029B85045B68181585D2833E84879B9709143E1F593F0000001 PUSH2 0x180 DUP7 ADD MLOAD DUP5 ADDMOD SWAP3 POP PUSH2 0x100A DUP4 PUSH1 0xE0 DUP7 ADD DUP4 PUSH2 0xA29 JUMP JUMPDEST PUSH32 0x30644E72E131A029B85045B68181585D2833E84879B9709143E1F593F0000001 PUSH2 0x2C0 DUP6 ADD MLOAD PUSH1 0x20 DUP8 ADD MLOAD MULMOD SWAP3 POP PUSH32 0x30644E72E131A029B85045B68181585D2833E84879B9709143E1F593F0000001 PUSH2 0x260 DUP6 ADD MLOAD DUP5 ADDMOD SWAP3 POP PUSH32 0x30644E72E131A029B85045B68181585D2833E84879B9709143E1F593F0000001 PUSH1 0x40 DUP7 ADD MLOAD DUP5 ADDMOD SWAP3 POP PUSH32 0x30644E72E131A029B85045B68181585D2833E84879B9709143E1F593F0000001 PUSH2 0x2E0 DUP6 ADD MLOAD PUSH1 0x20 DUP8 ADD MLOAD MULMOD SWAP2 POP PUSH32 0x30644E72E131A029B85045B68181585D2833E84879B9709143E1F593F0000001 PUSH2 0x280 DUP6 ADD MLOAD DUP4 ADDMOD SWAP2 POP PUSH32 0x30644E72E131A029B85045B68181585D2833E84879B9709143E1F593F0000001 PUSH1 0x40 DUP7 ADD MLOAD DUP4 ADDMOD SWAP2 POP PUSH32 0x30644E72E131A029B85045B68181585D2833E84879B9709143E1F593F0000001 DUP3 DUP5 MULMOD SWAP3 POP PUSH32 0x30644E72E131A029B85045B68181585D2833E84879B9709143E1F593F0000001 PUSH1 0x0 DUP7 ADD MLOAD DUP5 MULMOD SWAP3 POP PUSH32 0x30644E72E131A029B85045B68181585D2833E84879B9709143E1F593F0000001 PUSH1 0xC0 DUP7 ADD MLOAD DUP5 MULMOD SWAP3 POP PUSH32 0x30644E72E131A029B85045B68181585D2833E84879B9709143E1F593F0000001 PUSH1 0x20 DUP7 ADD MLOAD DUP5 MULMOD SWAP3 POP PUSH32 0x30644E72E131A029B85045B68181585D2833E84879B9709143E1F593F0000001 PUSH2 0x300 DUP6 ADD MLOAD DUP5 MULMOD SWAP3 POP PUSH32 0x30644E72E131A029B85045B68181585D2833E84879B9709143E1F593F0000001 DUP4 PUSH32 0x30644E72E131A029B85045B68181585D2833E84879B9709143E1F593F0000001 SUB MOD SWAP3 POP PUSH2 0x1274 DUP4 PUSH32 0x2CE6B0834B7BBA47A0972F70F613D40B2F66EC401161F42BC0CC2AB802048227 PUSH32 0xBB071CFE5E5F1E18BBCD462D29B5F157C648B683841CAF9033D45096D95C9E9 DUP5 PUSH2 0xA98 JUMP JUMPDEST PUSH2 0x1282 PUSH2 0x120 DUP6 ADD DUP3 PUSH2 0x9E4 JUMP JUMPDEST PUSH1 0x80 DUP6 ADD MLOAD SWAP3 POP PUSH2 0x1298 DUP4 PUSH2 0x160 DUP7 ADD DUP4 PUSH2 0xA29 JUMP JUMPDEST PUSH32 0x30644E72E131A029B85045B68181585D2833E84879B9709143E1F593F0000001 DUP4 DUP5 MULMOD SWAP3 POP PUSH2 0x12CD DUP4 PUSH2 0x1A0 DUP7 ADD DUP4 PUSH2 0xA29 JUMP JUMPDEST PUSH2 0x12DF PUSH1 0xE0 DUP7 ADD MLOAD PUSH1 0x20 DUP7 ADD DUP4 PUSH2 0xA29 JUMP JUMPDEST PUSH2 0x12F2 PUSH2 0x100 DUP7 ADD MLOAD PUSH1 0x60 DUP7 ADD DUP4 PUSH2 0xA29 JUMP JUMPDEST PUSH2 0x1305 PUSH2 0x120 DUP7 ADD MLOAD PUSH1 0xA0 DUP7 ADD DUP4 PUSH2 0xA29 JUMP JUMPDEST PUSH2 0x1356 PUSH2 0x140 DUP7 ADD MLOAD PUSH32 0x9BEBC383182D60239A1676131559F775274C9F3A60A40C1DECB91BD1652EDD8 PUSH32 0x5F52E577242BBD714129198820BE347DD61940EBD3A29EACD6CD2F91A6C8C14 DUP5 PUSH2 0xA98 JUMP JUMPDEST PUSH2 0x13A6 PUSH2 0x160 DUP7 ADD MLOAD PUSH32 0x953A04A4A70E490D204D95535AD4CB26A3B624A9BA2374D22A6E1D1876FA16C PUSH31 0x6304C95A8100438A1C93D627082ACBB136B4E9769AB34887F667F1AE7B6A99 DUP5 PUSH2 0xA98 JUMP JUMPDEST PUSH2 0x1C0 DUP6 ADD MLOAD SWAP3 POP PUSH32 0x30644E72E131A029B85045B68181585D2833E84879B9709143E1F593F0000001 DUP1 PUSH1 0xC0 DUP8 ADD MLOAD PUSH2 0x320 DUP8 ADD MLOAD MULMOD DUP5 ADDMOD SWAP3 POP PUSH32 0x30644E72E131A029B85045B68181585D2833E84879B9709143E1F593F0000001 DUP1 PUSH1 0xE0 DUP8 ADD MLOAD PUSH2 0x260 DUP8 ADD MLOAD MULMOD DUP5 ADDMOD SWAP3 POP PUSH32 0x30644E72E131A029B85045B68181585D2833E84879B9709143E1F593F0000001 DUP1 PUSH2 0x100 DUP8 ADD MLOAD PUSH2 0x280 DUP8 ADD MLOAD MULMOD DUP5 ADDMOD SWAP3 POP PUSH32 0x30644E72E131A029B85045B68181585D2833E84879B9709143E1F593F0000001 DUP1 PUSH2 0x120 DUP8 ADD MLOAD PUSH2 0x2A0 DUP8 ADD MLOAD MULMOD DUP5 ADDMOD SWAP3 POP PUSH32 0x30644E72E131A029B85045B68181585D2833E84879B9709143E1F593F0000001 DUP1 PUSH2 0x140 DUP8 ADD MLOAD PUSH2 0x2C0 DUP8 ADD MLOAD MULMOD DUP5 ADDMOD SWAP3 POP PUSH32 0x30644E72E131A029B85045B68181585D2833E84879B9709143E1F593F0000001 DUP1 PUSH2 0x160 DUP8 ADD MLOAD PUSH2 0x2E0 DUP8 ADD MLOAD MULMOD DUP5 ADDMOD SWAP3 POP PUSH32 0x30644E72E131A029B85045B68181585D2833E84879B9709143E1F593F0000001 DUP1 PUSH2 0x180 DUP8 ADD MLOAD PUSH2 0x300 DUP8 ADD MLOAD MULMOD DUP5 ADDMOD SWAP3 POP PUSH32 0x30644E72E131A029B85045B68181585D2833E84879B9709143E1F593F0000001 DUP4 PUSH32 0x30644E72E131A029B85045B68181585D2833E84879B9709143E1F593F0000001 SUB MOD SWAP3 POP PUSH2 0x1566 DUP4 PUSH1 0x2 PUSH1 0x1 DUP5 PUSH2 0xA98 JUMP JUMPDEST PUSH1 0x60 DUP6 ADD MLOAD SWAP3 POP PUSH2 0x157C DUP4 PUSH2 0x1E0 DUP7 ADD DUP4 PUSH2 0xA29 JUMP JUMPDEST PUSH32 0x30644E72E131A029B85045B68181585D2833E84879B9709143E1F593F0000001 PUSH1 0x60 DUP7 ADD MLOAD PUSH2 0x180 DUP8 ADD MLOAD MULMOD SWAP3 POP PUSH32 0x30644E72E131A029B85045B68181585D2833E84879B9709143E1F593F0000001 PUSH32 0x2B337DE1C8C14F22EC9B9E2F96AFEF3652627366F8170A0A948DAD4AC1BD5E80 DUP5 MULMOD SWAP3 POP PUSH2 0x1600 DUP4 PUSH2 0x220 DUP7 ADD DUP4 PUSH2 0xA29 JUMP JUMPDEST POP POP POP POP POP JUMP JUMPDEST PUSH1 0x0 PUSH1 0x40 MLOAD PUSH2 0x1E0 DUP4 ADD MLOAD DUP2 MSTORE PUSH1 0x20 PUSH2 0x1E0 DUP5 ADD ADD MLOAD PUSH1 0x20 DUP3 ADD MSTORE PUSH32 0x26186A2D65EE4D2F9C9A5B91F86597D35F192CD120CAF7E935D8443D1938E23D PUSH1 0x40 DUP3 ADD MSTORE PUSH32 0x30441FD1B5D3370482C42152A8899027716989A6996C2535BC9F7FEE8AAEF79E PUSH1 0x60 DUP3 ADD MSTORE PUSH32 0x1970EA81DD6992ADFBC571EFFB03503ADBBB6A857F578403C6C40E22D65B3C02 PUSH1 0x80 DUP3 ADD MSTORE PUSH32 0x54793348F12C0CF5622C340573CB277586319DE359AB9389778F689786B1E48 PUSH1 0xA0 DUP3 ADD MSTORE PUSH2 0x220 DUP4 ADD MLOAD PUSH1 0xC0 DUP3 ADD MSTORE PUSH1 0x20 PUSH2 0x220 DUP5 ADD ADD MLOAD PUSH32 0x30644E72E131A029B85045B68181585D97816A916871CA8D3C208C16D87CFD47 DUP2 PUSH32 0x30644E72E131A029B85045B68181585D97816A916871CA8D3C208C16D87CFD47 SUB MOD SWAP1 POP DUP1 PUSH1 0xE0 DUP4 ADD MSTORE PUSH32 0x198E9393920D483A7260BFB731FB5D25F1AA493335A9E71297E485B7AEF312C2 PUSH2 0x100 DUP4 ADD MSTORE PUSH32 0x1800DEEF121F1E76426A00665E5C4479674322D4F75EDADD46DEBD5CD992F6ED PUSH2 0x120 DUP4 ADD MSTORE PUSH32 0x90689D0585FF075EC9E99AD690C3395BC4B313370B38EF355ACDADCD122975B PUSH2 0x140 DUP4 ADD MSTORE PUSH32 0x12C85EA5DB8C6DEB4AAB71808DCB408FE3D1E7690C43D37B4CE6CC0166FA7DAA PUSH2 0x160 DUP4 ADD MSTORE PUSH1 0x20 DUP3 PUSH2 0x180 DUP5 PUSH1 0x8 PUSH2 0x7D0 GAS SUB STATICCALL DUP3 MLOAD DUP2 AND SWAP4 POP POP POP POP SWAP2 SWAP1 POP JUMP JUMPDEST PUSH1 0x40 MLOAD PUSH2 0x2C0 DUP2 ADD PUSH1 0x40 MSTORE PUSH2 0x17E8 DUP5 PUSH2 0x206 JUMP JUMPDEST PUSH2 0x17F3 DUP4 DUP3 DUP7 PUSH2 0x27F JUMP JUMPDEST PUSH2 0x17FC DUP2 PUSH2 0x5BD JUMP JUMPDEST PUSH2 0x1806 DUP4 DUP3 PUSH2 0x661 JUMP JUMPDEST PUSH2 0x1810 DUP2 DUP6 PUSH2 0x6C4 JUMP JUMPDEST PUSH2 0x181A DUP2 DUP6 PUSH2 0xB3E JUMP JUMPDEST PUSH2 0x1824 DUP2 DUP6 PUSH2 0xB6A JUMP JUMPDEST PUSH2 0x182D DUP2 PUSH2 0x1607 JUMP JUMPDEST PUSH2 0x2C0 DUP3 SUB PUSH1 0x40 MSTORE DUP1 PUSH1 0x0 MSTORE PUSH1 0x20 PUSH1 0x0 RETURN JUMPDEST PUSH1 0x0 PUSH2 0x1852 PUSH2 0x184D DUP5 PUSH2 0x1A29 JUMP JUMPDEST PUSH2 0x1A04 JUMP JUMPDEST SWAP1 POP DUP1 DUP4 DUP3 MSTORE PUSH1 0x20 DUP3 ADD SWAP1 POP DUP3 DUP6 PUSH1 0x20 DUP7 MUL DUP3 ADD GT ISZERO PUSH2 0x1875 JUMPI PUSH2 0x1874 PUSH2 0x1B10 JUMP JUMPDEST JUMPDEST PUSH1 0x0 JUMPDEST DUP6 DUP2 LT ISZERO PUSH2 0x18A5 JUMPI DUP2 PUSH2 0x188B DUP9 DUP3 PUSH2 0x194D JUMP JUMPDEST DUP5 MSTORE PUSH1 0x20 DUP5 ADD SWAP4 POP PUSH1 0x20 DUP4 ADD SWAP3 POP POP PUSH1 0x1 DUP2 ADD SWAP1 POP PUSH2 0x1878 JUMP JUMPDEST POP POP POP SWAP4 SWAP3 POP POP POP JUMP JUMPDEST PUSH1 0x0 PUSH2 0x18C2 PUSH2 0x18BD DUP5 PUSH2 0x1A55 JUMP JUMPDEST PUSH2 0x1A04 JUMP JUMPDEST SWAP1 POP DUP3 DUP2 MSTORE PUSH1 0x20 DUP2 ADD DUP5 DUP5 DUP5 ADD GT ISZERO PUSH2 0x18DE JUMPI PUSH2 0x18DD PUSH2 0x1B15 JUMP JUMPDEST JUMPDEST PUSH2 0x18E9 DUP5 DUP3 DUP6 PUSH2 0x1A9C JUMP JUMPDEST POP SWAP4 SWAP3 POP POP POP JUMP JUMPDEST PUSH1 0x0 DUP3 PUSH1 0x1F DUP4 ADD SLT PUSH2 0x1906 JUMPI PUSH2 0x1905 PUSH2 0x1B0B JUMP JUMPDEST JUMPDEST DUP2 CALLDATALOAD PUSH2 0x1916 DUP5 DUP3 PUSH1 0x20 DUP7 ADD PUSH2 0x183F JUMP JUMPDEST SWAP2 POP POP SWAP3 SWAP2 POP POP JUMP JUMPDEST PUSH1 0x0 DUP3 PUSH1 0x1F DUP4 ADD SLT PUSH2 0x1934 JUMPI PUSH2 0x1933 PUSH2 0x1B0B JUMP JUMPDEST JUMPDEST DUP2 CALLDATALOAD PUSH2 0x1944 DUP5 DUP3 PUSH1 0x20 DUP7 ADD PUSH2 0x18AF JUMP JUMPDEST SWAP2 POP POP SWAP3 SWAP2 POP POP JUMP JUMPDEST PUSH1 0x0 DUP2 CALLDATALOAD SWAP1 POP PUSH2 0x195C DUP2 PUSH2 0x1B35 JUMP JUMPDEST SWAP3 SWAP2 POP POP JUMP JUMPDEST PUSH1 0x0 DUP1 PUSH1 0x40 DUP4 DUP6 SUB SLT ISZERO PUSH2 0x1979 JUMPI PUSH2 0x1978 PUSH2 0x1B1F JUMP JUMPDEST JUMPDEST PUSH1 0x0 DUP4 ADD CALLDATALOAD PUSH8 0xFFFFFFFFFFFFFFFF DUP2 GT ISZERO PUSH2 0x1997 JUMPI PUSH2 0x1996 PUSH2 0x1B1A JUMP JUMPDEST JUMPDEST PUSH2 0x19A3 DUP6 DUP3 DUP7 ADD PUSH2 0x191F JUMP JUMPDEST SWAP3 POP POP PUSH1 0x20 DUP4 ADD CALLDATALOAD PUSH8 0xFFFFFFFFFFFFFFFF DUP2 GT ISZERO PUSH2 0x19C4 JUMPI PUSH2 0x19C3 PUSH2 0x1B1A JUMP JUMPDEST JUMPDEST PUSH2 0x19D0 DUP6 DUP3 DUP7 ADD PUSH2 0x18F1 JUMP JUMPDEST SWAP2 POP POP SWAP3 POP SWAP3 SWAP1 POP JUMP JUMPDEST PUSH2 0x19E3 DUP2 PUSH2 0x1A86 JUMP JUMPDEST DUP3 MSTORE POP POP JUMP JUMPDEST PUSH1 0x0 PUSH1 0x20 DUP3 ADD SWAP1 POP PUSH2 0x19FE PUSH1 0x0 DUP4 ADD DUP5 PUSH2 0x19DA JUMP JUMPDEST SWAP3 SWAP2 POP POP JUMP JUMPDEST PUSH1 0x0 PUSH2 0x1A0E PUSH2 0x1A1F JUMP JUMPDEST SWAP1 POP PUSH2 0x1A1A DUP3 DUP3 PUSH2 0x1AAB JUMP JUMPDEST SWAP2 SWAP1 POP JUMP JUMPDEST PUSH1 0x0 PUSH1 0x40 MLOAD SWAP1 POP SWAP1 JUMP JUMPDEST PUSH1 0x0 PUSH8 0xFFFFFFFFFFFFFFFF DUP3 GT ISZERO PUSH2 0x1A44 JUMPI PUSH2 0x1A43 PUSH2 0x1ADC JUMP JUMPDEST JUMPDEST PUSH1 0x20 DUP3 MUL SWAP1 POP PUSH1 0x20 DUP2 ADD SWAP1 POP SWAP2 SWAP1 POP JUMP JUMPDEST PUSH1 0x0 PUSH8 0xFFFFFFFFFFFFFFFF DUP3 GT ISZERO PUSH2 0x1A70 JUMPI PUSH2 0x1A6F PUSH2 0x1ADC JUMP JUMPDEST JUMPDEST PUSH2 0x1A79 DUP3 PUSH2 0x1B24 JUMP JUMPDEST SWAP1 POP PUSH1 0x20 DUP2 ADD SWAP1 POP SWAP2 SWAP1 POP JUMP JUMPDEST PUSH1 0x0 DUP2 ISZERO ISZERO SWAP1 POP SWAP2 SWAP1 POP JUMP JUMPDEST PUSH1 0x0 DUP2 SWAP1 POP SWAP2 SWAP1 POP JUMP JUMPDEST DUP3 DUP2 DUP4 CALLDATACOPY PUSH1 0x0 DUP4 DUP4 ADD MSTORE POP POP POP JUMP JUMPDEST PUSH2 0x1AB4 DUP3 PUSH2 0x1B24 JUMP JUMPDEST DUP2 ADD DUP2 DUP2 LT PUSH8 0xFFFFFFFFFFFFFFFF DUP3 GT OR ISZERO PUSH2 0x1AD3 JUMPI PUSH2 0x1AD2 PUSH2 0x1ADC JUMP JUMPDEST JUMPDEST DUP1 PUSH1 0x40 MSTORE POP POP POP JUMP JUMPDEST PUSH32 0x4E487B7100000000000000000000000000000000000000000000000000000000 PUSH1 0x0 MSTORE PUSH1 0x41 PUSH1 0x4 MSTORE PUSH1 0x24 PUSH1 0x0 REVERT JUMPDEST PUSH1 0x0 DUP1 REVERT JUMPDEST PUSH1 0x0 DUP1 REVERT JUMPDEST PUSH1 0x0 DUP1 REVERT JUMPDEST PUSH1 0x0 DUP1 REVERT JUMPDEST PUSH1 0x0 DUP1 REVERT JUMPDEST PUSH1 0x0 PUSH1 0x1F NOT PUSH1 0x1F DUP4 ADD AND SWAP1 POP SWAP2 SWAP1 POP JUMP JUMPDEST PUSH2 0x1B3E DUP2 PUSH2 0x1A92 JUMP JUMPDEST DUP2 EQ PUSH2 0x1B49 JUMPI PUSH1 0x0 DUP1 REVERT JUMPDEST POP JUMP INVALID LOG2 PUSH5 0x6970667358 0x22 SLT KECCAK256 0xCA 0xCC 0xFC DUP14 PUSH27 0x798481DBF0FC5088C26ECEAA3763D648E5CA58AA7ABCE3680FA205 PUSH5 0x736F6C6343 STOP ADDMOD SMOD STOP CALLER "
		},
		"gasEstimates": {
			"creation": {
				"codeDepositCost": "1408400",
				"executionCost": "1472",
				"totalCost": "1409872"
			},
			"external": {
				"verifyProof(bytes,uint256[])": "infinite"
			}
		},
		"methodIdentifiers": {
			"verifyProof(bytes,uint256[])": "1e8e1e13"
		}
	},
	"abi": [
		{
			"inputs": [
				{
					"internalType": "bytes",
					"name": "proof",
					"type": "bytes"
				},
				{
					"internalType": "uint256[]",
					"name": "pubSignals",
					"type": "uint256[]"
				}
			],
			"name": "verifyProof",
			"outputs": [
				{
					"internalType": "bool",
					"name": "",
					"type": "bool"
				}
			],
			"stateMutability": "view",
			"type": "function"
		}
	]
}