{
  "_format": "hh-sol-artifact-1",
  "contractName": "PrivateOver18Airdrop",
  "sourceName": "contracts/PrivateOver18Aidrop.sol",
  "abi": [
    {
      "inputs": [
        {
          "internalType": "contract IVerifier",
          "name": "_verifier",
          "type": "address"
        },
        {
          "internalType": "contract IPrivateSoulMinter",
          "name": "_privateSoulMinter",
          "type": "address"
        }
      ],
      "stateMutability": "nonpayable",
      "type": "constructor"
    },
    {
      "inputs": [
        {
          "internalType": "uint256[2]",
          "name": "a",
          "type": "uint256[2]"
        },
        {
          "internalType": "uint256[2][2]",
          "name": "b",
          "type": "uint256[2][2]"
        },
        {
          "internalType": "uint256[2]",
          "name": "c",
          "type": "uint256[2]"
        },
        {
          "internalType": "uint256[72]",
          "name": "input",
          "type": "uint256[72]"
        },
        {
          "internalType": "uint256",
          "name": "_tokenID",
          "type": "uint256"
        }
      ],
      "name": "collectAirdrop",
      "outputs": [],
      "stateMutability": "nonpayable",
      "type": "function"
    },
    {
      "inputs": [
        {
          "internalType": "address",
          "name": "",
          "type": "address"
        }
      ],
      "name": "isElegibleForAirdrop",
      "outputs": [
        {
          "internalType": "bool",
          "name": "",
          "type": "bool"
        }
      ],
      "stateMutability": "view",
      "type": "function"
    }
  ],
  "bytecode": "0x60806040523480156200001157600080fd5b506040516200165538038062001655833981810160405281019062000037919062000183565b816000806101000a81548173ffffffffffffffffffffffffffffffffffffffff021916908373ffffffffffffffffffffffffffffffffffffffff16021790555080600160006101000a81548173ffffffffffffffffffffffffffffffffffffffff021916908373ffffffffffffffffffffffffffffffffffffffff1602179055505050620001ca565b600080fd5b600073ffffffffffffffffffffffffffffffffffffffff82169050919050565b6000620000f282620000c5565b9050919050565b60006200010682620000e5565b9050919050565b6200011881620000f9565b81146200012457600080fd5b50565b60008151905062000138816200010d565b92915050565b60006200014b82620000e5565b9050919050565b6200015d816200013e565b81146200016957600080fd5b50565b6000815190506200017d8162000152565b92915050565b600080604083850312156200019d576200019c620000c0565b5b6000620001ad8582860162000127565b9250506020620001c0858286016200016c565b9150509250929050565b61147b80620001da6000396000f3fe608060405234801561001057600080fd5b50600436106100365760003560e01c8063e0007efc1461003b578063fb9e606614610057575b600080fd5b610055600480360381019061005091906109f6565b610087565b005b610071600480360381019061006c9190610ad2565b6106e8565b60405161007e9190610b1a565b60405180910390f35b60001515600260003373ffffffffffffffffffffffffffffffffffffffff1673ffffffffffffffffffffffffffffffffffffffff16815260200190815260200160002060009054906101000a900460ff1615151461011a576040517f08c379a000000000000000000000000000000000000000000000000000000000815260040161011190610bb8565b60405180910390fd5b3373ffffffffffffffffffffffffffffffffffffffff16600160009054906101000a900473ffffffffffffffffffffffffffffffffffffffff1673ffffffffffffffffffffffffffffffffffffffff16636352211e836040518263ffffffff1660e01b815260040161018c9190610be7565b602060405180830381865afa1580156101a9573d6000803e3d6000fd5b505050506040513d601f19601f820116820180604052508101906101cd9190610c17565b73ffffffffffffffffffffffffffffffffffffffff1614610223576040517f08c379a000000000000000000000000000000000000000000000000000000000815260040161021a90610cb6565b60405180910390fd5b8160006048811061023757610236610cd6565b5b6020020151826001604881106102505761024f610cd6565b5b60200201518360026048811061026957610268610cd6565b5b602002015160405160200161028093929190610d26565b60405160208183030381529060405280519060200120600160009054906101000a900473ffffffffffffffffffffffffffffffffffffffff1673ffffffffffffffffffffffffffffffffffffffff1663ad0e3037836040518263ffffffff1660e01b81526004016102f19190610be7565b602060405180830381865afa15801561030e573d6000803e3d6000fd5b505050506040513d601f19601f820116820180604052508101906103329190610d99565b14610372576040517f08c379a000000000000000000000000000000000000000000000000000000000815260040161036990610e12565b60405180910390fd5b7f152f5044240ef872cf7e6742fe202b9e07ed6188e9e734c09b06939704852358826003604881106103a7576103a6610cd6565b5b60200201511480156103f057507f2865441cd3e276643c84e55004ad259dff282c8c47c6e8c151afacdadf6f6db3826004604881106103e9576103e8610cd6565b5b6020020151145b61042f576040517f08c379a000000000000000000000000000000000000000000000000000000000815260040161042690610ea4565b60405180910390fd5b6f87b9b4c689c2024c54d1bf962cb16bce8260056048811061045457610453610cd6565b5b602002015114610499576040517f08c379a000000000000000000000000000000000000000000000000000000000815260040161049090610f36565b60405180910390fd5b6002826006604881106104af576104ae610cd6565b5b6020020151146104f4576040517f08c379a00000000000000000000000000000000000000000000000000000000081526004016104eb90610fc8565b60405180910390fd5b60038260076048811061050a57610509610cd6565b5b60200201511461054f576040517f08c379a00000000000000000000000000000000000000000000000000000000081526004016105469061105a565b60405180910390fd5b60128260086048811061056557610564610cd6565b5b6020020151146105aa576040517f08c379a00000000000000000000000000000000000000000000000000000000081526004016105a1906110ec565b60405180910390fd5b60008054906101000a900473ffffffffffffffffffffffffffffffffffffffff1673ffffffffffffffffffffffffffffffffffffffff166311b53523868686866040518563ffffffff1660e01b81526004016106099493929190611339565b602060405180830381865afa158015610626573d6000803e3d6000fd5b505050506040513d601f19601f8201168201806040525081019061064a91906113ac565b610689576040517f08c379a000000000000000000000000000000000000000000000000000000000815260040161068090611425565b60405180910390fd5b6001600260003373ffffffffffffffffffffffffffffffffffffffff1673ffffffffffffffffffffffffffffffffffffffff16815260200190815260200160002060006101000a81548160ff0219169083151502179055505050505050565b60026020528060005260406000206000915054906101000a900460ff1681565b6000604051905090565b600080fd5b600080fd5b6000601f19601f8301169050919050565b7f4e487b7100000000000000000000000000000000000000000000000000000000600052604160045260246000fd5b6107658261071c565b810181811067ffffffffffffffff821117156107845761078361072d565b5b80604052505050565b6000610797610708565b90506107a3828261075c565b919050565b600067ffffffffffffffff8211156107c3576107c261072d565b5b602082029050919050565b600080fd5b6000819050919050565b6107e6816107d3565b81146107f157600080fd5b50565b600081359050610803816107dd565b92915050565b600061081c610817846107a8565b61078d565b90508060208402830185811115610836576108356107ce565b5b835b8181101561085f578061084b88826107f4565b845260208401935050602081019050610838565b5050509392505050565b600082601f83011261087e5761087d610717565b5b600261088b848285610809565b91505092915050565b600067ffffffffffffffff8211156108af576108ae61072d565b5b602082029050919050565b60006108cd6108c884610894565b61078d565b905080604084028301858111156108e7576108e66107ce565b5b835b8181101561091057806108fc8882610869565b8452602084019350506040810190506108e9565b5050509392505050565b600082601f83011261092f5761092e610717565b5b600261093c8482856108ba565b91505092915050565b600067ffffffffffffffff8211156109605761095f61072d565b5b602082029050919050565b600061097e61097984610945565b61078d565b90508060208402830185811115610998576109976107ce565b5b835b818110156109c157806109ad88826107f4565b84526020840193505060208101905061099a565b5050509392505050565b600082601f8301126109e0576109df610717565b5b60486109ed84828561096b565b91505092915050565b6000806000806000610a208688031215610a1357610a12610712565b5b6000610a2188828901610869565b9550506040610a328882890161091a565b94505060c0610a4388828901610869565b935050610100610a55888289016109cb565b925050610a00610a67888289016107f4565b9150509295509295909350565b600073ffffffffffffffffffffffffffffffffffffffff82169050919050565b6000610a9f82610a74565b9050919050565b610aaf81610a94565b8114610aba57600080fd5b50565b600081359050610acc81610aa6565b92915050565b600060208284031215610ae857610ae7610712565b5b6000610af684828501610abd565b91505092915050565b60008115159050919050565b610b1481610aff565b82525050565b6000602082019050610b2f6000830184610b0b565b92915050565b600082825260208201905092915050565b7f596f7520616c726561647920636c61696d656420796f75722061697264726f7060008201527f2100000000000000000000000000000000000000000000000000000000000000602082015250565b6000610ba2602183610b35565b9150610bad82610b46565b604082019050919050565b60006020820190508181036000830152610bd181610b95565b9050919050565b610be1816107d3565b82525050565b6000602082019050610bfc6000830184610bd8565b92915050565b600081519050610c1181610aa6565b92915050565b600060208284031215610c2d57610c2c610712565b5b6000610c3b84828501610c02565b91505092915050565b7f5468697320746f6b656e2062656c6f6e677320746f20616e6f7468657220736f60008201527f756c000000000000000000000000000000000000000000000000000000000000602082015250565b6000610ca0602283610b35565b9150610cab82610c44565b604082019050919050565b60006020820190508181036000830152610ccf81610c93565b9050919050565b7f4e487b7100000000000000000000000000000000000000000000000000000000600052603260045260246000fd5b6000819050919050565b610d20610d1b826107d3565b610d05565b82525050565b6000610d328286610d0f565b602082019150610d428285610d0f565b602082019150610d528284610d0f565b602082019150819050949350505050565b6000819050919050565b610d7681610d63565b8114610d8157600080fd5b50565b600081519050610d9381610d6d565b92915050565b600060208284031215610daf57610dae610712565b5b6000610dbd84828501610d84565b91505092915050565b7f546865207369676e6174757265206973206e6f742076616c6964000000000000600082015250565b6000610dfc601a83610b35565b9150610e0782610dc6565b602082019050919050565b60006020820190508181036000830152610e2b81610def565b9050919050565b7f54686520636c61696d20776173207369676e656420627920612077726f6e672060008201527f7075626c6963206b657900000000000000000000000000000000000000000000602082015250565b6000610e8e602a83610b35565b9150610e9982610e32565b604082019050919050565b60006020820190508181036000830152610ebd81610e81565b9050919050565b7f57726f6e6720436c61696d20736368656d61207573656420746f2067656e657260008201527f617465207468652070726f6f6600000000000000000000000000000000000000602082015250565b6000610f20602d83610b35565b9150610f2b82610ec4565b604082019050919050565b60006020820190508181036000830152610f4f81610f13565b9050919050565b7f496e76616c696420736c6f7420696e646578207573656420746f2067656e657260008201527f617465207468652070726f6f6600000000000000000000000000000000000000602082015250565b6000610fb2602d83610b35565b9150610fbd82610f56565b604082019050919050565b60006020820190508181036000830152610fe181610fa5565b9050919050565b7f496e76616c6964206f70657261746f72207573656420746f2067656e6572617460008201527f65207468652070726f6f66000000000000000000000000000000000000000000602082015250565b6000611044602b83610b35565b915061104f82610fe8565b604082019050919050565b6000602082019050818103600083015261107381611037565b9050919050565b7f496e76616c6964207468726573686f6c642076616c7565207573656420746f2060008201527f67656e6572617465207468652070726f6f660000000000000000000000000000602082015250565b60006110d6603283610b35565b91506110e18261107a565b604082019050919050565b60006020820190508181036000830152611105816110c9565b9050919050565b600060029050919050565b600081905092915050565b6000819050919050565b611135816107d3565b82525050565b6000611147838361112c565b60208301905092915050565b6000602082019050919050565b6111698161110c565b6111738184611117565b925061117e82611122565b8060005b838110156111af578151611196878261113b565b96506111a183611153565b925050600181019050611182565b505050505050565b600060029050919050565b600081905092915050565b6000819050919050565b600081905092915050565b6111eb8161110c565b6111f581846111d7565b925061120082611122565b8060005b83811015611231578151611218878261113b565b965061122383611153565b925050600181019050611204565b505050505050565b600061124583836111e2565b60408301905092915050565b6000602082019050919050565b611267816111b7565b61127181846111c2565b925061127c826111cd565b8060005b838110156112ad5781516112948782611239565b965061129f83611251565b925050600181019050611280565b505050505050565b600060489050919050565b600081905092915050565b6000819050919050565b6000602082019050919050565b6112eb816112b5565b6112f581846112c0565b9250611300826112cb565b8060005b83811015611331578151611318878261113b565b9650611323836112d5565b925050600181019050611304565b505050505050565b6000610a008201905061134f6000830187611160565b61135c604083018661125e565b61136960c0830185611160565b6113776101008301846112e2565b95945050505050565b61138981610aff565b811461139457600080fd5b50565b6000815190506113a681611380565b92915050565b6000602082840312156113c2576113c1610712565b5b60006113d084828501611397565b91505092915050565b7f50726f6f6620766572696669636174696f6e206661696c656400000000000000600082015250565b600061140f601983610b35565b915061141a826113d9565b602082019050919050565b6000602082019050818103600083015261143e81611402565b905091905056fea2646970667358221220ad254496e94f8ae2e57d0037c9f1626e115e0a609a3ea2d54b79b8ba090c5edf64736f6c634300080b0033",
  "linkReferences": {},
  "deployedLinkReferences": {}
}